:100000000C94DE000C9406010C9406010C9406017D
:100010000C9406010C9406010C9406010C94060144
:100020000C9406010C9406010C94050F0C94770FA8
:100030000C9406010C9406010C9406010C94060124
:100040000C9406010C94020C0C9406010C9406010D
:100050000C9406010C9406010C9406010C948E0776
:100060000C9406010C9406010C9406010C940601F4
:100070000C9406010C9406010C9406010C940601E4
:100080000C9406010C9406010C9406010C940601D4
:100090000C9406010C9406010C9406010C940601C4
:1000A0000C9406010C9406010C940601E305E60588
:1000B000D505D905DD05070607060706EA05EE059D
:1000C000F205F805FC050706020600000000250001
:1000D00028002B002E003100000000002400270023
:1000E0002A002D0030000404040404030405020265
:1000F00002020403020202020606060606060404C1
:100100000202020404040802011040804010204052
:1001100080408008020401804020100201108010FD
:10012000204040200000000200090F0000030401ED
:10013000000C0000000000000000000000000000B3
:10014000000000080B000202020100090400000187
:10015000020200000524001001052401010104240D
:10016000020605240600010705810310004009046A
:100170000100020A00000007050202400000070516
:1001800083024000000403090412010002EF02018F
:100190004041233680000101020301417264756908
:1001A0006E6F204C4C430041726475696E6F204C39
:1001B000656F6E6172646F00BA11AE1111241FBEBB
:1001C000CFEFDAE0DEBFCDBF12E0A0E0B1E0E2EEBB
:1001D000F7E302C005900D92AA36B107D9F723E0E4
:1001E000AAE6B2E001C01D92AA3DB207E1F710E015
:1001F000CDEDD0E004C02197FE010E94EB1ACC3D6A
:10020000D107C9F70E94B2120C94E41B0C940000B1
:1002100090E0FC01EB5FFE4F2491FC01EA51FF4F9F
:100220008491882399F090E0880F991FFC01E8528F
:10023000FF4FA591B491FC01E653FF4F8591949136
:100240008FB7F894EC91E22BEC938FBF0895FC01EB
:1002500024813581232B31F421E061157105A1F052
:10026000FB0108C0FC01808191816115710531F4A9
:1002700021E0FC018081882339F005C00E94D41B55
:1002800021E0892B09F020E0822F0895FC01809164
:100290006B02811103C08FEF9FEF08959FB7F89411
:1002A00082E08093E9002091F20030E012161306FC
:1002B00014F421E030E02115310559F0289884E646
:1002C00080936A028091F10080838091F2008823FC
:1002D00019F09FBFC90108958BE68093E800F9CF1C
:1002E0002FB7F89483E08093E9009091E800892F7C
:1002F000807295FF04C09091F20080E4891B2FBFAB
:10030000089580913A0381110DC082E080933603F5
:1003100084E080933703109239031092380381E010
:1003200080933A0386E393E00895EF92FF920F9350
:100330001F93CF93DF93FC012481358161157105F3
:1003400011F480E019C041155105A9F07B01EC01C1
:100350008A01020F131FB8010E94600E882389F3DF
:10036000288139818C819D81B701820F931F0E9462
:10037000DD1B1D830C8381E0DF91CF911F910F91D5
:10038000FF90EF900895CF93DF93EC016115710515
:1003900061F0FB0101900020E9F73197AF01461BA6
:1003A000570B0E949501811103C0CE010E94870E58
:1003B000CE01DF91CF910895CF93DF93EC01FB0144
:1003C00044815581608171810E949501811103C032
:1003D000CE010E94870ECE01DF91CF9108954F92FA
:1003E0005F926F927F928F929F92AF92BF92CF92C5
:1003F000DF92EF92FF920F931F93CF93DF93CDB7CE
:10040000DEB7A8970FB6F894DEBF0FBECDBF7C0154
:100410008B01DB0116968C919EEA980F923008F0C2
:1004200051C165E272E0C8010E942701882321F1D1
:10043000C090B402D090B502F80187809084A18466
:10044000B28473E0880C991CAA1CBB1C7A95D1F766
:10045000D601ED91FC910084F185E02DC60109954E
:10046000AB01BC01481959096A097B0977FF39C0FA
:10047000C7010E94420DD8C168E272E0C8010E9423
:1004800027018823B9F1C090B402D090B502F801D9
:1004900047815085618572854A015B0163E0880C64
:1004A000991CAA1CBB1C6A95D1F7D601ED91FC9151
:1004B0000084F185E02DC6010995AB01BC01480D12
:1004C000591D6A1D7B1DD6011296ED91FC91139763
:1004D00080819181A281B38184179507A607B70710
:1004E0003CF2D601ED91FC910680F781E02DC6012A
:1004F000099596C16BE272E0C8010E94270188232A
:10050000B1F02091B4023091B502F8018781908555
:10051000A185B28584369105A105B1050CF4A8CF5B
:10052000F90122813381F9019187808779C16EE2D7
:1005300072E0C8010E942701882361F08091B40213
:100540009091B502DC01ED91FC910280F381E02DE8
:10055000099566C161E372E0C8010E942701882302
:1005600061F08091B4029091B502DC01ED91FC91B3
:100570000084F185E02D099531C064E372E0C80183
:100580000E9427018823C1F0F80187819085A18509
:10059000B28553E0880F991FAA1FBB1F5A95D1F748
:1005A000E091B402F091B5020280F381E02D8483E2
:1005B0009583A683B78334C167E372E0C8010E94C4
:1005C0002701882391F0E091B402F091B5020280F6
:1005D000F381E02D608171818281938128E030E098
:1005E00040E050E00E94CC1A3BC06AE372E0C801D0
:1005F0000E9427018823C1F0E091B402F091B50276
:1006000022813381F80187819085A185B28543E0FD
:10061000880F991FAA1FBB1F4A95D1F7F901808344
:100620009183A283B383FCC06DE372E0C8010E9492
:1006300027018823D1F0E091B402F091B502028045
:10064000F381E02D22853385C901A0E0B0E09C0153
:10065000AD0193E055954795379527959A95D1F734
:10066000B801C7010E94A10CDFC060E472E0C801BC
:100670000E942701882309F4FBCEC090B402D090D9
:10068000B502D80117964D905D906D907C901A97A9
:1006900083E0440C551C661C771C8A95D1F7F60143
:1006A00062A173A184A195A10E943D1A4616570626
:1006B00008F4DECED6011296ED91FC911397538685
:1006C0004286AEC0803309F0D3CE63E472E0C80145
:1006D0000E9427018823F1F187E0F70111928A95A2
:1006E000E9F74AE060E070E0CE0145960E949E0E78
:1006F0004AE060E070E0CE010F960E949E0E63E437
:1007000072E0CE0101960E94F00EBE01615F7F4F44
:10071000CE0101960E94DC0166E472E00E94C301F2
:10072000BE016B5E7F4F0E94DC0163E272E00E94BB
:10073000C301BC01C7010E94D60ECE0101960E94E2
:10074000990ECE010F960E94990ECE0145960E94F9
:10075000990E6AC068E472E0C8010E9427018823EC
:10076000B9F08091B4029091B502DC01ED91FC9159
:100770000284F385E02D0995882319F042E050E0CA
:1007800002C040E050E0B801C7010E945C0C4CC0C0
:100790006AE472E0C8010E942701882389F0C090B2
:1007A000B602D090B702CE0101960E94540D8EE0A1
:1007B000FE013196D60101900D928A95E1F720C095
:1007C0006DE472E0C8010E942701882389F0C0907F
:1007D000B602D090B702CE014B960E94620D8EE019
:1007E000FE017B96D60101900D928A95E1F718C023
:1007F00060E572E0C8010E942701882309F438CE21
:100800004EE050E060E070E08091B6029091B70257
:100810000E94C3186BEF7AE48CE190E00E94E51827
:10082000B801C7010E94070DC701A8960FB6F8943A
:10083000DEBF0FBECDBFDF91CF911F910F91FF9013
:10084000EF90DF90CF90BF90AF909F908F907F9070
:100850006F905F904F900895EF92FF920F931F93C8
:10086000CF93DF93EC017B018A01BA010E94600EF5
:10087000811104C0CE010E94870E07C01D830C8326
:10088000B701888199810E94DD1BCE01DF91CF9154
:100890001F910F91FF90EF900895CF93DF931F92D8
:1008A000CDB7DEB76983DC01ED91FC910280F38165
:1008B000E02D41E050E0BE016F5F7F4F09950F9042
:1008C000DF91CF91089583E08093E9008091F20059
:1008D000882319F08AE38093E8000895FC01848559
:1008E000958597FD0BC09FB7F89482E08093E9004F
:1008F0008091F2009FBF90E0019608959FB7F89411
:1009000082E08093E9008091F2009FBF90E008951B
:10091000089580E090E008953FB7F8948091AF0388
:100920009091B003A091B103B091B20326B5A89BFA
:1009300005C02F3F19F00196A11DB11D3FBFBA2F71
:10094000A92F982F8827820F911DA11DB11DBC01D1
:10095000CD0142E0660F771F881F991F4A95D1F796
:1009600008958F929F92AF92BF92CF92DF92EF92B3
:10097000FF926B017C010E948C044B015C01C1144D
:10098000D104E104F104F1F00E948C04DC01CB01FC
:1009900088199909AA09BB09883E9340A105B105A8
:1009A00070F321E0C21AD108E108F10888EE880E40
:1009B00083E0981EA11CB11CC114D104E104F10410
:1009C00019F7DDCFFF90EF90DF90CF90BF90AF9001
:1009D0009F908F9008958F929F92AF92BF92CF92E7
:1009E000DF92EF92FF920F931F93CF93DF935C01FF
:1009F0006B017A0180910D01882309F45BC080911D
:100A00006B02882309F456C08091CA0380FF05C099
:100A10008091E00082608093E000E70110E00AEF3F
:100A200083E0882E9AE3992E2097D9F10E947001D5
:100A300081110AC0015009F43DC061E070E080E01E
:100A400090E00E94B104F0CF282F30E0C217D30706
:100A50000CF48C2F4FB7F8948092E9009091E80045
:100A600095FF1DC0282F30E0C21BD30BF601982F35
:100A7000915020F081918093F100FACFC20ED31EE5
:100A8000112319F09092E80009C08091E80085FDDB
:100A900006C09092E80011E0209709F010E04FBFE7
:100AA000C3CF1111C3CF5D9884E68093CB031E148E
:100AB0001F0444F081E090E0F5019383828380E09D
:100AC00090E001C0C701DF91CF911F910F91FF907E
:100AD000EF90DF90CF90BF90AF909F908F90089550
:100AE0000E94700190E00895CF93DF931F92CDB7DD
:100AF000DEB7FC018485958597FD05C02FEF3FEF9C
:100B0000358724870BC0CE0101960E9446010197CC
:100B100019F4898190E002C08FEF9FEF0F90DF9171
:100B2000CF9108950F931F93CF93DF931F92CDB76B
:100B3000DEB78C01FC018485958597FF0EC0CE0140
:100B400001960E944601019719F4298130E002C004
:100B50002FEF3FEFF80135872487F80184859585CD
:100B60000F90DF91CF911F910F9108950E94BB1BB1
:100B7000362F90E0FC01EC5DFE4F4491FC01EB5FF1
:100B8000FE4F2491FC01EA51FF4F8491882309F420
:100B900051C04423E1F150E0FA013197EF30F10503
:100BA000B0F5EA5AFF4F0C94EB1A909180009F77B2
:100BB00007C0909180009F7D03C090918000977F37
:100BC0009093800024C094B59F7702C094B59F7D18
:100BD00094BD1DC0909190009F7707C090919000A8
:100BE0009F7D03C090919000977F909390000FC0DD
:100BF0009091C0009F7703C09091C0009F7D90931B
:100C0000C00005C09091C200977F9093C200E82F6A
:100C1000F0E0EE0FFF1FE653FF4FA591B4918FB7A1
:100C2000F894EC91311103C020952E2301C02E2B96
:100C30002C938FBF08952FB7F8946091AB037091F8
:100C4000AC038091AD039091AE032FBF08952F9216
:100C50003F924F925F926F927F928F929F92AF924C
:100C6000BF92CF92DF92EF92FF920F931F93CF9399
:100C7000DF93CDB7DEB728970FB6F894DEBF0FBE6F
:100C8000CDBF1C0120E030E0A901DC0156966D913A
:100C90007D918D919C9159970E948917882309F421
:100CA00024C10E941B06F101868C978CA0A0B1A0E4
:100CB0000685178520893189601B710B820B930B88
:100CC0000E948E1720E030E04AE754E40E94CB19DE
:100CD0009B01AC01C501B4010E94EF17D1015296EE
:100CE0002D913D914D915C9155970E945F196B013B
:100CF0007C01F1010280F381E02DFE83ED832481EC
:100D000035814681578129833A834B835C83F10186
:100D100002A1F3A1FF83D1019496BC91B887F101A0
:100D200015A1202F3F814B2F512F602F7F818B2FBB
:100D3000912F0E94EF172B013C01C501B4019F7751
:100D40009B01AC010E945F194B015C01F10182859E
:100D50009385A485B585BC01CD0129813A814B815C
:100D60005C81621B730B840B950B97FF07C09095FA
:100D70008095709561957F4F8F4F9F4F0E948E1782
:100D80009B01AC01C501B4010E94EF179B01AC01AE
:100D9000C301B2010E945F190E94771A4B015C01E6
:100DA000D10119966C91062E000C770B880B990BCC
:100DB0000E94901769837A838B839C839B01AC018B
:100DC000C501B4010E94EF174B015C0120E030E047
:100DD000A901C701B6010E946C1A26013701181635
:100DE00024F077FA709477F8709420E030E0A9014D
:100DF000C501B4010E946C1A181624F0B7FAB09419
:100E0000B7F8B094A5019401C301B2010E948917FB
:100E100087FF0FC020E030E0A901C701B6010E94A2
:100E20006C1A46015701181624F0B7FAB094B7F8B7
:100E3000B094202F3F814885512FC501B4010E94F5
:100E4000891787FD1AC0ED81FE816285738580E078
:100E500090E00E948E17062F7F838887192F262FF8
:100E6000372F482F592FC501B4010E946C1A18164C
:100E700024F0082D9F82A8861B2D29813A814B8161
:100E80005C81602F7F818885912F0E94EF17D101AF
:100E900056966D937D938D939C93599717968D914C
:100EA0009C911897DC01ED91FC910480F581E02D77
:100EB000402F5F816885712F28960FB6F894DEBFAA
:100EC0000FBECDBFDF91CF911F910F91FF90EF909B
:100ED000DF90CF90BF90AF909F908F907F906F905A
:100EE0005F904F903F902F90099428960FB6F894FA
:100EF000DEBF0FBECDBFDF91CF911F910F91FF904D
:100F0000EF90DF90CF90BF90AF909F908F907F90A9
:100F10006F905F904F903F902F9008951F920F9287
:100F20000FB60F9211242F933F938F939F93AF93FC
:100F3000BF938091AB039091AC03A091AD03B091AE
:100F4000AE033091AA0323E0230F2D3720F401963E
:100F5000A11DB11D05C026E8230F0296A11DB11DDC
:100F60002093AA038093AB039093AC03A093AD03AB
:100F7000B093AE038091AF039091B003A091B10301
:100F8000B091B2030196A11DB11D8093AF03909360
:100F9000B003A093B103B093B203BF91AF919F91FF
:100FA0008F913F912F910F900FBE0F901F9018952A
:100FB000CF93C1E020E030E0A901FC016689778988
:100FC000808D918D0E948917811101C0C0E08C2F06
:100FD000CF910895DC011296ED91FC9113976481F5
:100FE0007581868197810895CF92DF92EF92FF926B
:100FF000CB01BA019B01AC010E945F196B017C011E
:1010000020E034E244E75BE40E946C1A18168CF08E
:1010100020E030E044E753E4C701B6010E9489179D
:1010200087FF0EC0C12CD12C94E7E92E93E4F92E52
:1010300007C0C12C84E2D82E84E7E82E8BE4F82E7A
:10104000A701960160E074E284E79BE40E94CB195B
:101050000E943D1A7093010160930001FF90EF9090
:10106000DF90CF9008953093C6032093C50310926C
:10107000C7030E94F40780910001909101019093B1
:10108000890080938800109285001092840010924D
:10109000800089E080938100EFE6F0E0808182604B
:1010A00080830895CB0108957F928F929F92AF9293
:1010B000BF92CF92DF92EF92FF920F931F93CF9345
:1010C000DF93EC0149015A018B01C12CD12C76012F
:1010D000C814D904EA04FB0484F5F80171908F0167
:1010E0008F8580FF0BC0E881F9810084F185E02DB8
:1010F00020E144E060E070E0CE010995EB85FC85DD
:101100008D859E85E817F90738F470828B859C855C
:1011100001969C878B870BC0E881F981672D70E071
:10112000028CF38DE02DCE010995019649F02FEF49
:10113000C21AD20AE20AF20ACBCFB401C50102C038
:10114000B601C701DF91CF911F910F91FF90EF90F2
:10115000DF90CF90BF90AF909F908F907F90089539
:10116000CF93DF93EC01E881F9810288F389E02DC8
:1011700009958F3F2FEF920731F02D813E812F5F30
:101180003F4F3E832D83DF91CF9108958FEF9FEFE7
:10119000089560E070E0CB01089580E090E008954C
:1011A000CB010895CF93DF93EC0188899989DC0105
:1011B000ED91FC910084F185E02D0995892BA9F32F
:1011C00088899989DC01ED91FC910284F385E02DF9
:1011D000DF91CF910994CF93DF93EC0188899989AE
:1011E000DC01ED91FC910084F185E02D0995892BBE
:1011F000A9F388899989DC01ED91FC910484F58536
:10120000E02DDF91CF910994AF92BF92CF92DF9200
:10121000EF92FF920F931F93CF93DF9300D000D0F4
:10122000CDB7DEB78C015B01C12CD12C7601F80162
:1012300080899189DC01ED91FC910284F385E02D98
:1012400029833A834B835C83099529813A814B81B9
:101250005C818F3F71F0C216D306E406F5064CF4AC
:10126000D5018D935D01BFEFCB1ADB0AEB0AFB0AB8
:10127000DECFC701B6010F900F900F900F90DF9156
:10128000CF911F910F91FF90EF90DF90CF90BF9083
:10129000AF900895DC0150968D919C915197DC019F
:1012A000ED91FC910084F185E02D099480E090E0BF
:1012B000089580E090E0089580E090E0089580E057
:1012C00090E008950895CF93DF93C091E402D09108
:1012D000E502E881F9810084F185E02DCE010995D0
:1012E000892BB9F3E881F9810284F385E02DCE01E1
:1012F000DF91CF9109941F93CF93DF93182FC09163
:10130000E402D091E5028A3041F4E881F98101904C
:10131000F081E02D6DE0CE010995E881F981019021
:10132000F081E02D612FCE01099521E030E0019799
:1013300011F420E030E0C901DF91CF911F910895B1
:10134000CF93DF93EC018F819885DC01ED91FC91C7
:101350000280F381E02D09951E8E1F8E18A219A21E
:101360001E8A1F8A188E198E198661E08D810E944F
:10137000B80560E08C81DF91CF910C94B8051F9384
:10138000CF93DF93EC01162F8C810E94B805EA8180
:10139000FB814481558166817781112379F08985AC
:1013A000082E000C990BAA0BBB0B840F951FA61FD0
:1013B000B71F84839583A683B78313C08A859B85D3
:1013C000AC85BD85481759076A077B0751F4E8814A
:1013D000F9810280F381E02DCE01DF91CF911F9141
:1013E0000994DF91CF911F9108958F929F92AF92B0
:1013F000BF92CF92DF92EF92FF920F931F93CF9302
:10140000DF93EC010A811B81F80184819581A6811B
:10141000B7816A017B01C81AD90AEA0AFB0A4A871E
:101420005B876C877D8781E090E01C141D041E049F
:101430001F0414F080E090E0CC24F7FCC394DD247A
:10144000EE24FF248C199D09D82E8987D8011A967D
:10145000ED90FC901B978E9DB0018F9D700D9E9D11
:10146000700D112480E090E00E948E176A8F7B8FB0
:101470008C8F9D8FB70180E090E00E948E174B010A
:101480005C01F80180859185BC0180E090E00E94BC
:101490008E1720E030E04AE754E40E94CB199B010C
:1014A000AC01C501B4010E94CB194B015C016D2D4B
:1014B000DD0C770B880B990B0E9490179B01AC01F8
:1014C000C501B4010E94EF176E8F7F8F88A399A387
:1014D00060E08C810E94B8056985661F6627661FDB
:1014E0008E810E94B80560E08D810E94B8050E943F
:1014F0001B066E877F87888B998BCE88DF88E88C68
:10150000F98C20E030E0A901C701B6010E946C1AF5
:10151000181624F0C701B601905802C0C701B601E1
:101520008AA09BA0ACA0BDA0A50194010E94891730
:101530000F81188587FF2DC06985062E000C770B5B
:10154000880B990B0E9490179B01AC01C501B40157
:101550000E94EF176A8B7B8B8C8B9D8B6E8B7F8BA6
:10156000888F998FD801ED91FC910190F081E02D49
:101570009E01B501A401C801DF91CF911F910F9188
:10158000FF90EF90DF90CF90BF90AF909F908F90A3
:101590000994CA8ADB8AEC8AFD8AD801ED91FC9114
:1015A000C481D58120E030E0A901C701B6010E94C5
:1015B0006C1A181624F0F7FAF094F7F8F094B701C3
:1015C000A601C801FE01DF91CF911F910F91FF90FD
:1015D000EF90DF90CF90BF90AF909F908F90099445
:1015E0000F931F93CF93DF938C01EB016F3F8FEF2E
:1015F000780719F480E090E00FC06A3031F46DE0B4
:10160000F801808991890E94A7116C2FF8018089C7
:1016100091890E94A711CE01DF91CF911F910F9167
:1016200008958F929F92BF92CF92DF92EF92FF9296
:101630000F931F93CF93DF9300D000D0CDB7DEB7C9
:101640008C014B01C12CD12C7601C216D306E406C5
:10165000F50644F5F401B1904F01FAE0BF120EC057
:101660006DE0F8018089918929833A834B835C83FB
:101670000E94A7115C814B813A8129816B2DF80171
:101680008089918929833A834B835C830E94A711C7
:10169000FFEFCF1ADF0AEF0AFF0A5C814B813A8124
:1016A0002981D3CFCA01B9010F900F900F900F90ED
:1016B000DF91CF911F910F91FF90EF90DF90CF902E
:1016C000BF909F908F900895FB0120813181FC0194
:1016D00031832083FB0142815381F90136972081B8
:1016E0003181FC01E20FF31F51834083089520EE06
:1016F00031E0FC01318320832AEE31E0358B248BED
:1017000060EF71E00C94640BDC01ED91FC91369775
:1017100020813181820F931F0C94770BCF93DF933D
:10172000EC010E94770BCE01DF91CF910C94D7167C
:10173000DC01ED91FC91369720813181820F931F5E
:101740000C948E0B0C94D716089508950C94D7160C
:10175000DC01ED91FC91369720813181820F931F3E
:101760000C94A60BFB0120813181FC013183208385
:10177000FB0142815381F901369720813181FC01BF
:10178000E20FF31F51834083089528E631E0FC0106
:101790003183208322E731E0318F208F68E771E0C9
:1017A0000C94B20BDC01ED91FC91369720813181D4
:1017B000820F931F0C94C50BCF93DF93EC010E9413
:1017C000C50BCE01DF91CF910C94D716DC01ED91C2
:1017D000FC91369720813181820F931F0C94DC0B92
:1017E0000C94D716089508950C94D716DC01ED914A
:1017F000FC91369720813181820F931F0C94F40B5A
:101800000C94D7161F920F920FB60F9211242F939C
:101810003F934F935F936F937F938F939F93AF9378
:10182000BF93EF93FF936091C70381E068276093B4
:10183000C7038091C5039091C603DC01ED91FC9133
:101840000190F081E02D09958091000190910101B6
:101850009093890080938800FF91EF91BF91AF91A1
:101860009F918F917F916F915F914F913F912F91B8
:101870000F900FBE0F901F9018951092810010923C
:10188000850010928400EFE6F0E080818D7F8083F8
:101890008FEF90E0909389008093880090938B0065
:1018A00080938A00109280001092C70308950C94D0
:1018B0003D0C089508950895EF92FF920F931F93A2
:1018C000CF93DF93CDB7DEB72C970FB6F894DEBF7A
:1018D0000FBECDBF8C017B01BA0187E0F8011192E8
:1018E0008A95E9F74AE0CE0107960E949E0EB7015D
:1018F000CE0101960E94D60EBE01695F7F4FCE01D8
:1019000001960E94DC016EED72E00E94DC01BC01D8
:10191000C8010E94D60ECE0101960E94990ECE01FA
:1019200007960E94990EC8012C960FB6F894DEBF58
:101930000FBECDBFDF91CF911F910F91FF90EF9020
:101940000895CF92DF92EF92FF920F931F93CF9360
:10195000DF93CDB7DEB7AD970FB6F894DEBF0FBEFD
:10196000CDBF7C016B01CA01B90119A618A61BA63F
:101970001AA61DA61CA62AE08E010F5F1F4FA80104
:101980000E949F15F80101900020E9F73197AF01FF
:10199000401B510BB801CE0188960E942C04B60161
:1019A000CE0182960E94D60EBE01685D7F4FCE01A9
:1019B00082960E94DC016EED72E00E94DC01BC01A7
:1019C000C8010E94D60ECE0182960E94990ECE01C9
:1019D00088960E94990E87E0F70111928A95E9F79F
:1019E000B801C7010E94D60EC8010E94990EC70116
:1019F000AD960FB6F894DEBF0FBECDBFDF91CF918D
:101A00001F910F91FF90EF90DF90CF9008950F936B
:101A10001F93CF93DF93CDB7DEB72C970FB6F89413
:101A2000DEBF0FBECDBF8C01CE0107960E94D60E41
:101A30006EED72E0CE0107960E94DC01BC01CE0182
:101A400001960E94D60ECE0107960E94990E87E05D
:101A5000F80111928A95E9F7BE016F5F7F4FC801C7
:101A60000E94D60ECE0101960E94990EC8012C96B6
:101A70000FB6F894DEBF0FBECDBFDF91CF911F919F
:101A80000F910895CF93DF93EC0187E0FE0111924F
:101A90008A95E9F765E672E0CE010E94F00E1E829B
:101AA000CE01DF91CF910895DC011C9211961C921A
:101AB00011978CE0E0E1F2E0129601900D928A9588
:101AC000E1F708950F931F93CF93DF93CDB7DEB760
:101AD0006C970FB6F894DEBF0FBECDBF8C01CE0160
:101AE0000F960E94540DCE0101960E94540D4EE0B7
:101AF00050E060E070E0CE0101960E94AD188CE1EC
:101B000090E00E94BD188B3F9A4421F08EE0FE01C8
:101B10003F9606C089818111F9CF8EE0FE01319692
:101B2000D80101900D928A95E1F7C8016C960FB625
:101B3000F894DEBF0FBECDBFDF91CF911F910F9103
:101B400008954091CE035091CF032091CC03309162
:101B5000CD0342175307B4F49091E8009570E1F378
:101B60009091E80092FD19C08093F1008091CE031E
:101B70009091CF0301968F739927892B19F48EEFDB
:101B80008093E8008091CE039091CF0301969093CB
:101B9000CF038093CE0381E0089580E00895DF9223
:101BA000EF92FF920F931F93CF93DF93D82E8A016A
:101BB0007B01E40EF51EEB01CE15DF0571F0D7FEBB
:101BC00003C0FE01849101C088810E94A10D21966D
:101BD0008111F2CF8FEF9FEF01C0C801DF91CF914C
:101BE0001F910F91FF90EF90DF900895615030F0BA
:101BF0002091F100FC0120830196F8CF289884E61B
:101C000080936A020895CF92DF92EF92FF920F9332
:101C10001F93CF93DF936C017A018B01C0E0D0E07A
:101C2000CE15DF0589F0D8016D918D01D601ED91BA
:101C3000FC910190F081E02DC6010995892B11F4EA
:101C40007E0102C02196ECCFC701DF91CF911F9199
:101C50000F91FF90EF90DF90CF9008950F931F9317
:101C6000CF93DF931F92CDB7DEB782E0898342E442
:101C700050E063E471E080E80E94CF0D0E94810192
:101C8000DC0112960D911C9113970115110569F055
:101C9000D801ED91FC910280F381E02DBE016F5FD0
:101CA0007F4FC801099597FF07C089810F90DF9189
:101CB000CF911F910F910895F80100851185E5CF0F
:101CC0000F931F93CF93DF93EC0188819981009745
:101CD00029F02A813B812617370788F48B016F5F33
:101CE0007F4F0E94F11A009761F0998388831B83CC
:101CF0000A832C813D81232B11F4FC01108281E0A9
:101D000001C080E0DF91CF911F910F910895CF9393
:101D1000DF93EC0188819981009711F00E94D7161A
:101D2000198218821D821C821B821A82DF91CF9138
:101D30000895FC01808191810C94D716EF92FF9257
:101D40000F931F93CF93DF93CDB7DEB762970FB694
:101D5000F894DEBF0FBECDBF8C01CB01F80111821C
:101D60001082138212821582148250E09E012F5F2E
:101D70003F4F7901B9010E948915F70101900020B8
:101D8000E9F73197AF014E195F09B701C8010E9409
:101D90002C0462960FB6F894DEBF0FBECDBFDF9164
:101DA000CF911F910F91FF90EF900895FB01DC01FF
:101DB00011961C921E9213961C921E9212971596C3
:101DC0001C921E9214978617970749F060817181C3
:101DD0006115710521F0448155810C942C040895FE
:101DE000FC01118210821382128215821482611505
:101DF000710551F0FB0101900020E9F73197AF0127
:101E0000461B570B0C942C0408951F920F920FB68B
:101E10000F9211248F939F938091E1009091E100A4
:101E2000937F9093E10083FF0FC01092E90091E04F
:101E30009093EB001092EC0092E39093ED001092DF
:101E40006B0298E09093F00082FF20C093E09093A3
:101E5000E9009091F200992319F09AE39093E80039
:101E60009091CB03992339F09091CB0391509093AB
:101E7000CB03992389F190916A02992339F09091CB
:101E80006A02915090936A02992341F184FF10C035
:101E90008091E2008E7E81608093E2008091E1007B
:101EA0008F7E8093E1008091CA038E7E806111C095
:101EB00080FF16C08091E2008E7E80618093E200F8
:101EC0008091E1008E7E8093E1008091CA038E7E36
:101ED00081608093CA0304C05D9ACDCF289AD6CF83
:101EE0009F918F910F900FBE0F901F9018951F928A
:101EF0000F920FB60F921124CF92DF92EF92FF92C2
:101F00000F931F932F933F934F935F936F937F9301
:101F10008F939F93AF93BF93EF93FF93CF93DF93F1
:101F2000CDB7DEB76C97DEBFCDBF1092E9008091D0
:101F3000E80083FFEDC168E0CE0145960E94F60DF2
:101F400082EF8093E8008D8987FF05C09091E800BB
:101F500090FFFCCF03C09EEF9093E800982F9076FF
:101F600009F0C6C09E892F89188D91110CC0803848
:101F700029F48091C9038093F10002C01092F1000E
:101F80001092F10048C1422F50E0512B913051F492
:101F9000811141C14130510509F03DC18091C90312
:101FA0008D7F0BC0933061F4811135C141305105F3
:101FB00009F031C18091C90382608093C9032BC1AC
:101FC000953041F48091E80080FFFCCF2068209399
:101FD000E30021C1963009F05FC0EB8CFC8C1092BD
:101FE000E9001092CF031092CE03123091F51092B7
:101FF000CD031092CC030E942E0E99E0BE016F5FBC
:102000007F4FDB01E92F1D92EA95E9F799831A8347
:1020100091E09E8390EA98879AEF99872091CE036A
:102020003091CF03275F3F4F3C832B838D831092EA
:10203000E9001092CF031092CE03F092CD03E0920C
:10204000CC0349E050E080E00E94CF0D0E942E0EAC
:10205000E2C0F092CD03E092CC030E948101DC014A
:102060001296ED90FC901397E114F10409F4C0C0AE
:10207000D701ED91FC910480F581E02DBE016B5EEE
:102080007F4FC7010995009719F00CF0C4C0C7C075
:10209000F701E084F184E8CF973009F4C0C09830AC
:1020A00021F481E08093F100B6C0993009F0B3C00B
:1020B000837009F0B4C0EDE1F2E081E021E036E3A5
:1020C0009081992361F08093E9002093EB00919136
:1020D0009093EC003093ED008F5F873089F78EE7A7
:1020E0008093EA001092EA008F8980936B0293C07C
:1020F0008B8D9C8D1092E9001092CF031092CE032D
:102100009093CD038093CC03898D811156C08E8925
:102110009D89913A59F4813209F081C047E050E03D
:1021200066E071E080E00E94CF0D75C0913209F049
:1021300076C0833289F4888D90E0982F88272F8984
:10214000822BA0E0B0E08093020190930301A09362
:102150000401B09305015FC0803269F48091E8000A
:1021600082FFFCCF67E086E091E00E94F60D8BEFE6
:102170008093E80006C0823209F04DC08F898093B9
:102180000D018091C803882319F0EEEFFAE002C038
:10219000E0E0F8E08091060190910701A09108012C
:1021A000B0910901803B9440A105B10509F07BC0C5
:1021B00080910D0180FF93C076C00E948101DC01F7
:1021C00012960D911C9113970115110541F1D8013B
:1021D000ED91FC910190F081E02DBE016B5E7F4F8F
:1021E000C8010995811117C0F80100851185ECCF50
:1021F000113009F44EC0133091F48F89882309F40B
:1022000045C0823081F440E860E187EA91E00E94B5
:102210004315882321F08EEF8093E80079C081E296
:102220008093EB0075C0813029F440E86BE08BE9C6
:1022300091E0EDCF833099F70E948101DC01129685
:10224000ED90FC9013978E010F5F1F4F6801E11412
:10225000F10479F0D701ED91FC910680F781E02D32
:10226000B801C7010995080F111DF701E084F18439
:10227000EECFD8011C92F60101900020E9F73197CA
:10228000BF016C197D0940E0C601C1CF65E871E06E
:1022900002C069E871E06115710509F2FB01449122
:1022A00050E080E840CF0FB6F894A8958091600088
:1022B000886180936000109260000FBEA895EE3F89
:1022C0002AE0F20739F08091FE0A9091FF0A91838B
:1022D0008083A1CF1092FF0A1092FE0A9CCFEE3F9E
:1022E0008AE0F80731F0808191819093FF0A809312
:1022F000FE0A87E797E7918380839BE088E10FB62A
:10230000F894A895809360000FBE9093600083CFEF
:102310006C960FB6F894DEBF0FBECDBFDF91CF91A4
:10232000FF91EF91BF91AF919F918F917F916F91AD
:102330005F914F913F912F911F910F91FF90EF90DF
:10234000DF90CF900F900FBE0F901F901895DC017B
:10235000ED91FC910190F081E02D09948EED92E0D9
:102360000E94990E82E593E00E94C50B80E893E0FD
:102370000C94770B0F931F93CF93DF93A6EEB2E0ED
:1023800013961C921E92129748EE53E060E070E0A4
:1023900014964D935D936D937C93179780E491E031
:1023A00011969C938E938FEF9FEF1D969C938E9327
:1023B0001C97ECE6F2E016821782108611861286D0
:1023C00013861486158616861786108A118A128A35
:1023D000138A148A158AE0E8F3E0C1E2D0E0D08FD6
:1023E000C78B118E128E138E46E050E060E070E0D5
:1023F000448F558F668F778F10A211A212A213A25D
:1024000020E224A316A215A211A682E893E090A7C9
:1024100087A380EE91E0918380838AEE91E0958B93
:10242000848B168215821086178212861186148676
:10243000138616861586108A17868EEB91E0938395
:102440008283B38BA28B30E1318BE2E5F3E0D48F52
:10245000C38F158E168E178E40A351A362A373A34C
:1024600014A215A216A217A220A712A611A615A69D
:10247000128213821482158228E533E034A723A741
:1024800028E631E03183208322E731E0318F208F4D
:10249000128611861486138616861586108A17866C
:1024A000128A118A148A138A97838683B78BA68B24
:1024B00088E0858BB093E502A093E40263E679E0BF
:1024C0008BE799E00E94DB1563E272E08EED92E00B
:1024D0000E94F00E00E513E08AE092E0F80191839B
:1024E0008083C8010E943D0C82E493E00E94620D4B
:1024F000C8EBD2E08AEF91E09983888381E08987F5
:102500008CE08C838AE08D838BE08E8380E090E08A
:10251000AAE7B3E48AA39BA3ACA3BDA38CE00E946B
:1025200008018E810E9408018D810E94080161E0EE
:102530008D810E94B80584E493E09B838A83188789
:102540000F831E8A1F8A188E198EE4EBF2E0D18366
:10255000C08382E493E093838283DF91CF911F91C4
:102560000F910895CF93DF93CDB7DEB76D970FB678
:10257000F894DEBF0FBECDBF789484B5826084BD71
:1025800084B5816084BD85B5826085BD85B5816077
:1025900085BD80916E00816080936E0010928100F5
:1025A00080918100826080938100809181008160B0
:1025B0008093810080918000816080938000809171
:1025C000910082608093910080919100816080935E
:1025D0009100809190008160809390008091C10073
:1025E00084608093C1008091C10082608093C100AB
:1025F0008091C10081608093C1008091C30081609F
:102600008093C3008091C00082608093C00080915D
:10261000C20081608093C20080917A0084608093C0
:102620007A0080917A00826080937A0080917A00AB
:10263000816080937A0080917A00806880937A002C
:1026400010926B021092C9031092CA038091D700B6
:1026500081608093D70080EA8093D80089B580613B
:1026600089BD89B5826089BD09B400FEFDCF61E0F6
:1026700070E080E090E00E94B1048091D8008F7CEF
:1026800080618093D8008091E000807F8093E0009B
:102690008091E1008E7E8093E1008DE08093E200E6
:1026A000559A209AEEEFFFE7859194918B3F9C4DD0
:1026B00019F481E08093C8031092B0021092B10225
:1026C0001092B2021092B30210926E0210926F0238
:1026D00010927002109271020E941B066B017C0125
:1026E0004B015C0168EB860E6BE0961EA11CB11CD1
:1026F0000E941B066C157D058E059F0528F0861629
:102700009706A806B906A0F786EE92E09093AF026E
:102710008093AE020BE110E0F0900D016AE070E0F2
:1027200080E090E00E94B104F1100AC0015011094C
:1027300039F064E670E080E090E00E94B104ECCFF4
:10274000A091AE02B091AF028FEF9FEF1D969C93C8
:102750008E931C97ED91FC9111970280F381E02DEF
:1027600041E150E063E572E0CD0109950E941B064E
:102770006B017C014B015C018AE0880E911CA11C5D
:10278000B11C0E941B066C157D058E059F0528F067
:1027900086169706A806B906A0F781E08093820204
:1027A0008FEF9FEF9093F3028093F20261E08091AC
:1027B000BD020E94B80560E08091BC020E94B8058D
:1027C000789430E3732E40E0C42E40E0D42E88EBA2
:1027D00092E00E94270686EE92E00E946E04181690
:1027E00019060CF049C186EE92E00E94740597FD2F
:1027F00043C18D30910541F08034910509F421C128
:102800008A30910509F022C10091C3031091C403DD
:102810000115110509F415C164E672E0CE010196B7
:102820000E94F00E188619861A861B868091B303C3
:102830008C871D8641E050E0BE01645F7F4FCE0172
:1028400001960E9495010230110548F47F82BE0175
:102850006F5F7F4FCE0143960E94EF01CEC0809103
:10286000B4038C871D8641E050E0BE01645F7F4F5A
:10287000CE0101960E9495010230110539F3809135
:10288000B5038F830530110508F498C08091B60315
:102890008C3209F093C007EB13E05801EFEFAE1A4A
:1028A000BE0AF8016080862D90E00E948015892B79
:1028B00011F08501F2CFFDE26F120AC0580122E04B
:1028C000A20EB11CF8016180EE24E394F12C0BC040
:1028D000FBE26F1206C0580122E0A20EB11CF80103
:1028E0006180E12CF12C8501A12CB12C20E030E09D
:1028F000A901862C912C67FC4EC0C401C0970A9791
:1029000018F4E0EDE60D1BC0C4012A8F3B8F4C8FFD
:102910005D8F0E94C31B2A8D3B8D4C8D5D8D892B55
:10292000D1F1C4010E94C01B2A8D3B8D4C8D5D8D61
:10293000892B11F487E501C087E3E62DE81B8E2F74
:1029400090E08A3091053CF5B7FC1EC02A39F9E9C0
:102950003F074F07F9E15F07B8F4293969E93607FE
:10296000460769E1560711F4069774F4AAE0B0E04F
:102970000E940D199B01AC012E0F311D411D511DEF
:10298000AA24A394B12C03C0AA24AA94BA2CF801B7
:1029900061908F01AECFB7FC0AC0EF2859F0509577
:1029A0004095309521953F4F4F4F5F4F03C02FEF1C
:1029B0003FEFA901288739874A875B87BE016F5F90
:1029C0007F4FCE010C960E94EF018C859D859C8BDC
:1029D0008B8B8E859F859E8B8D8B88899989988F0F
:1029E0008F8B1D861C861F861E86198A188A8A89E7
:1029F000898FCE010C960E94990ECE0101960E94FD
:102A0000990EE091E602F091E7024F89588D6B89AB
:102A10007C890280F381E02D86EE92E00995E091B9
:102A2000E602F091E7020280F381E02D42E050E0FF
:102A300062E672E086EE92E00995CE0143960E942E
:102A4000990E1092C4031092C30316C02091C303C1
:102A50003091C4032F30310578F4A9014F5F5F4FE7
:102A60005093C4034093C303F901ED54FC4F80839A
:102A7000FA01ED54FC4F1082C114D10409F4A7CE21
:102A80000E9400009ECECF92DF92EF92FF920F93B2
:102A90001F93CF93DF931F92CDB7DEB7182F062F6A
:102AA000E42E862F880F8E5F99830E94A10D83E00C
:102AB0000E94A10DF12EC12E9981D92E8C2D8F1936
:102AC000801798F4F601E7FE02C0849101C080816E
:102AD0000E94A10D182F80E00E94A10D8123FFEF1D
:102AE000CF1ADF0A8111EACF01C081E00F90DF9198
:102AF000CF911F910F91FF90EF90DF90CF900895AD
:102B000091110C946F17803219F089508550C8F7D5
:102B100008954532510520F4423010F00C9494157C
:102B2000FB011082CB010895BB274A3031F4992371
:102B300022F4BDE2909581959F4F0C94C215BB275E
:102B4000FA01A62F6217710581059105330B30FB41
:102B500066F0AA27660F771F881F991FAA1FA21762
:102B600010F0A21B63953850A9F7A05DAA3308F0B6
:102B7000A95DA19336F7B111B1931082CA010C94EB
:102B80007917BB27FB015527AA27880F991FAA1F72
:102B9000A41710F0A41B83955051B9F7A05DAA3378
:102BA00008F0A95DA193009779F7B111B193119243
:102BB000CB010C9479170F931F93CF93DF9300975A
:102BC00031F46115710519F480E090E03AC08B0191
:102BD000EC016EE070E081E090E00E942616FC01BE
:102BE000892B91F380E883830115110571F0138718
:102BF000028781E883838091D0039091D103892B50
:102C000021F4F093D103E093D0032097C9F0D1874A
:102C1000C0878381826083838091D2039091D303A4
:102C2000892B71F4F093D303E093D2038091D40302
:102C30009091D503892B21F4F093D503E093D4032D
:102C4000CF01DF91CF911F910F9108950F931F93A3
:102C5000CF93DF93869F8001879F100D969F100D65
:102C60001124C8010E944216EC01009729F0A80126
:102C700060E070E00E947217CE01DF91CF911F914A
:102C80000F910895CF93DF938230910510F482E085
:102C900090E0E091D803F091D90320E030E0C0E06B
:102CA000D0E0309711F14081518148175907C0F0A9
:102CB0004817590761F482819381209719F09B830B
:102CC0008A832BC09093D9038093D80326C0211503
:102CD000310519F04217530718F49A01BE01DF01BC
:102CE000EF010280F381E02DDCCF2115310509F1E0
:102CF000281B390B2430310590F412968D919C914C
:102D000013976115710521F0FB019383828304C041
:102D10009093D9038093D803FD01329644C0FD01FE
:102D2000E20FF31F81939193225031092D933C932D
:102D30003AC02091D6033091D703232B41F4209140
:102D40001001309111013093D7032093D6032091C5
:102D50000E0130910F012115310541F42DB73EB719
:102D60004091120150911301241B350BE091D603C1
:102D7000F091D703E217F307A0F42E1B3F0B28179F
:102D8000390778F0AC014E5F5F4F2417350748F0E4
:102D90004E0F5F1F5093D7034093D60381939193B7
:102DA00002C0E0E0F0E0CF01DF91CF9108950F93F2
:102DB0001F93CF93DF93009709F48CC0FC013297E7
:102DC000138212820091D8031091D90301151105C5
:102DD00081F420813181820F931F2091D60330919D
:102DE000D7032817390779F5F093D703E093D60373
:102DF00071C0D80140E050E0AE17BF0750F4129602
:102E00002D913C911397AD012115310509F1D9019F
:102E1000F3CF9D01DA013383228360817181860FB4
:102E2000971F8217930769F4EC0128813981260FD7
:102E3000371F2E5F3F4F318320838A819B8193838D
:102E40008283452B29F4F093D903E093D80342C041
:102E50001396FC93EE931297ED01499159919E01BF
:102E6000240F351FE217F30771F480819181840FDD
:102E7000951F029611969C938E938281938113964F
:102E80009C938E931297E0E0F0E0D80112968D911A
:102E90009C911397009719F0F8018C01F6CF8D9152
:102EA0009C9198012E5F3F4F820F931F2091D60374
:102EB0003091D7032817390769F4309729F4109215
:102EC000D9031092D80302C0138212821093D70341
:102ED0000093D603DF91CF911F910F910895992709
:102EE00088270895DC0101C06D9341505040E0F700
:102EF0000895DC01FC01672F71917723E1F7329788
:102F000004C07C916D9370836291AE17BF07C8F3C4
:102F100008950E94CB1708F481E00895E89409C051
:102F200097FB3EF490958095709561957F4F8F4FFC
:102F30009F4F9923A9F0F92F96E9BB279395F69512
:102F4000879577956795B795F111F8CFFAF4BB0F90
:102F500011F460FF1BC06F5F7F4F8F4F9F4F16C0F4
:102F6000882311F096E911C0772321F09EE8872F7E
:102F7000762F05C0662371F096E8862F70E060E03A
:102F80002AF09A95660F771F881FDAF7880F9695B3
:102F9000879597F90895990F0008550FAA0BE0E857
:102FA000FEEF16161706E807F907C0F0121613060B
:102FB000E407F50798F0621B730B840B950B39F44B
:102FC0000A2661F0232B242B252B21F408950A26B1
:102FD00009F4A140A6958FEF811D811D08950E94DF
:102FE00002180C9473180E94651838F00E946C182F
:102FF00020F0952311F00C945C180C9462181124A5
:103000000C94A7180E94841870F3959FC1F3950F34
:1030100050E0551F629FF001729FBB27F00DB11D5C
:10302000639FAA27F00DB11DAA1F649F6627B00DEC
:10303000A11D661F829F2227B00DA11D621F739FD5
:10304000B00DA11D621F839FA00D611D221F749FE3
:103050003327A00D611D231F849F600D211D822F2A
:10306000762F6A2F11249F5750409AF0F1F0882351
:103070004AF0EE0FFF1FBB1F661F771F881F91507E
:103080005040A9F79E3F510580F00C945C180C94B9
:10309000A7185F3FE4F3983ED4F38695779567953C
:1030A000B795F795E7959F5FC1F7FE2B880F911DA8
:1030B0009695879597F9089597F99F6780E870E04E
:1030C00060E008959FEF80EC089500240A9416169E
:1030D000170618060906089500240A941216130606
:1030E000140605060895092E0394000C11F4882394
:1030F00052F0BB0F40F4BF2B11F460FF04C06F5FB0
:103100007F4F8F4F9F4F089557FD9058440F551F85
:1031100059F05F3F71F04795880F97FB991F61F059
:103120009F3F79F087950895121613061406551FD0
:10313000F2CF4695F1DF08C0161617061806991F3C
:10314000F1CF86957105610508940895E894BB2731
:1031500066277727CB0197F90895DC01CB01FC01A5
:10316000F999FECF06C0F2BDE1BDF89A319600B4E0
:103170000D9241505040B8F70895A8E1B0E042E008
:1031800050E00C94AF18DC01A40FB51F4150504023
:1031900048F0CB01840F951F2E910E94D418415006
:1031A0005040D0F70895262FF999FECF92BD81BDEA
:1031B000F89A019700B4021639F01FBA20BD0FB675
:1031C000F894FA9AF99A0FBE08950196272F0E9453
:1031D000D4180C94D318A1E21A2EAA1BBB1BFD0114
:1031E0000DC0AA1FBB1FEE1FFF1FA217B307E407E6
:1031F000F50720F0A21BB30BE40BF50B661F771F3E
:10320000881F991F1A9469F760957095809590951D
:103210009B01AC01BD01CF0108950E944F19A59FEC
:10322000900DB49F900DA49F800D911D11240895C1
:103230002F923F924F925F926F927F928F929F92C6
:10324000AF92BF92CF92DF92EF92FF920F931F93B4
:10325000CF93DF93CDB7DEB7CA1BDB0B0FB6F89465
:10326000DEBF0FBECDBF09942A88398848885F84A5
:103270006E847D848C849B84AA84B984C884DF8016
:10328000EE80FD800C811B81AA81B981CE0FD11DFA
:103290000FB6F894DEBF0FBECDBFED010895A29F1B
:1032A000B001B39FC001A39F700D811D1124911D1A
:1032B000B29F700D811D1124911D08955058BB2798
:1032C000AA270E9476190C9473180E94651838F08A
:1032D0000E946C1820F039F49F3F19F426F40C94E6
:1032E00062180EF4E095E7FB0C945C18E92F0E943D
:1032F000841858F3BA17620773078407950720F0FC
:1033000079F4A6F50C94A6180EF4E0950B2EBA2FBE
:10331000A02D0B01B90190010C01CA01A0011124DB
:10332000FF27591B99F0593F50F4503E68F11A1687
:10333000F040A22F232F342F4427585FF3CF469518
:1033400037952795A795F0405395C9F77EF41F163A
:10335000BA0B620B730B840BBAF09150A1F0FF0F04
:10336000BB1F661F771F881FC2F70EC0BA0F621FF0
:10337000731F841F48F4879577956795B795F795E0
:103380009E3F08F0B0CF9395880F08F09927EE0F75
:103390009795879508950E94DF190C9473180E94E1
:1033A0006C1858F00E94651840F029F45F3F29F02E
:1033B0000C945C1851110C94A7180C9462180E947C
:1033C000841868F39923B1F3552391F3951B550B9A
:1033D000BB27AA2762177307840738F09F5F5F4FE8
:1033E000220F331F441FAA1FA9F335D00E2E3AF027
:1033F000E0E832D091505040E695001CCAF72BD03F
:10340000FE2F29D0660F771F881FBB1F261737078F
:103410004807AB07B0E809F0BB0B802DBF01FF27C1
:1034200093585F4F3AF09E3F510578F00C945C182A
:103430000C94A7185F3FE4F3983ED4F386957795F4
:103440006795B795F7959F5FC9F7880F911D96957A
:10345000879597F90895E1E0660F771F881FBB1FD6
:10346000621773078407BA0720F0621B730B840B83
:10347000BA0BEE1F88F7E09508950E948C1888F02B
:103480009F5798F0B92F9927B751B0F0E1F0660F28
:10349000771F881F991F1AF0BA95C9F714C0B13069
:1034A00091F00E94A618B1E008950C94A618672F19
:1034B000782F8827B85F39F0B93FCCF38695779598
:1034C0006795B395D9F73EF4909580957095619581
:1034D0007F4F8F4F9F4F08950E94CB1708F48FEFB7
:1034E000089519F416F40C9462180C94B71A0E94FB
:1034F0008C18B8F39923C9F3B6F39F57550B87FF80
:103500000E94C51A0024A0E640EA90018058569512
:10351000979528F4805C660F771F881F20F0261788
:103520003707480730F4621B730B840B20293129BD
:103530004A2BA69517940794202531254A2758F73A
:10354000660F771F881F20F026173707480730F4CB
:10355000620B730B840B200D311D411DA09581F76B
:10356000B901842F9158880F9695879508959F3FAC
:1035700031F0915020F4879577956795B795880F2E
:10358000911D9695879597F9089591505040660F33
:10359000771F881FD2F70895052E97FB1EF400941D
:1035A0000E94E31A57FD07D00E94EB1807FC03D0D6
:1035B0004EF40C94E31A50954095309521953F4F69
:1035C0004F4F5F4F089590958095709561957F4F0F
:1035D0008F4F9F4F0895EE0FFF1F0590F491E02D40
:1035E0000994A0E0B0E0E7EFFAE10C941C19EC01BB
:1035F000009721F4CB010E944216B8C0FC01E60FEF
:10360000F71F9C0122503109E217F30708F4ACC000
:10361000D9010D911C91119706171707B0F00530CD
:10362000110508F49FC0C80104978617970708F48E
:1036300099C002501109061B170B019311936D934A
:103640007C93CF010E94D7168DC05B01A01AB10AEE
:103650004C01800E911EA091D803B091D90340E097
:1036600050E0E12CF12C109709F44AC0A815B905D7
:10367000D1F56D907C901197630182E0C80ED11C4A
:10368000CA14DB0480F1A3014A195B096A0182E0D4
:10369000C80ED11C1296BC9012971396AC91B5E04F
:1036A000CB16D10440F0B282A38351834083D90169
:1036B0006D937C930AC00E5F1F4FC301800F911F53
:1036C000F90191838083EB2DFA2FE114F10431F09D
:1036D000D7011396FC93EE93129744C0F093D9034D
:1036E000E093D8033FC08D919C91119748175907DB
:1036F00008F4AC017D0112960D90BC91A02DB3CFC2
:103700008091D6039091D70388159905E1F4461767
:103710005707C8F480910E0190910F01009741F472
:103720008DB79EB74091120150911301841B950BE8
:10373000E817F907C8F4F093D703E093D603F9012B
:10374000718360830FC0CB010E9442167C010097F9
:1037500059F0A801BE010E94CB1BCE010E94D716D2
:10376000C70104C0CE0102C080E090E0CDB7DEB753
:10377000EEE00C94381981E090E0F8940C94E41B8E
:1037800085FD0C946F17806291110C946F17815610
:103790008A51D8F70895FB01DC0102C001900D9217
:1037A00041505040D8F70895FB01DC018D91019004
:1037B00080190110D9F3990B0895FB01DC010190E8
:1037C0000D920020E1F7089510E0CDEDD0E004C0A7
:1037D000FE010E94EB1A2196CE3DD107C9F7F8945D
:0237E000FFCF19
:1037E200FFFFFFFFFFFF00E10000000000000000FC
:1037F200DA03800018000000000000000000E8FF6B
:10380200E8FF0000000000001400000000000000BB
:103812000000ECFFECFF00000000000000000000D0
:103822004D04EB04700563046E04740592050600F2
:1038320000000000A40BA60BFAFFFAFF0000A50B84
:10384200A80B180000000000C50BDC0BE8FFE8FF26
:103852000000D20BE60B68011A012401720100007C
:103862000000590CA20B62095F095C09590956094B
:10387200CD08C908C608B008D0085408520802008A
:1038820000000000F20BF40BFEFFFEFF0000F30B42
:10389200F60B000000005B0C000C000000005A0C4C
:1038A200F00B62095F095C09590956094A090409C2
:1038B200EB08D208D008110BF00A14000000000037
:1038C200770B8E0BECFFECFF0000840B980BE001F2
:1038D2002E013801EA0100000000BF09A0092706F5
:1038E200F509EA07D807000000003308570CF4076F
:1038F20000CF350000000000C409006400C18081CF
:1039020000000023004D49004D4F0041570053571E
:103912000050520050570052520052570056520067
:103922005657004652002E0058005A44005A520080
:103932005A5700564D4450565F317C315F564D44C4
:0A39420050560D0A00457272000095
:00000001FF
